:0300000002098171
:0C098100787FE4F6D8FD75810F02094272
:08098D0068656C6C6F6F6F0070
:10095D00C2B1C2B28FA0D2B07F887E131208BDC2C1
:02096D00B022B6
:10096F00C2B1D2B28FA0D2B07F887E131208BDC29F
:02097F00B022A4
:100927007F3812095D7F8312095D7F0C12095D7F95
:0B0937000112095D7F107E270208BD41
:1008E1008B0D8A0E890FAB0DAA0EA90F120800FFFE
:1008F100601012096F7401250FF50FE4350EF50E26
:0309010080E4226D
:10086E008F088D098B0A8A0B890CE50830E006E5A6
:10087E000944808009E50830E108E50944C0FF120B
:0B088E00095DAB0AAA0BA90C0208E1EF
:100904008F088D098B0AE50830E006E509448080EC
:1009140009E50830E108E50944C0FF12095DAF0AA2
:0309240002096F56
:100942001209277BFF7A09798D7D057F0212086ED5
:0B0952007B4B7D037F0112090480FE37
:100899007C007D19120819E4FEEEC39F5015758975
:1008A90011758ACB758C7DD28C308DFDC28DC28C31
:0308B9000E80E6C8
:0108BC002219
:1008BD007C007D64120819E4FEEEC39F5015758906
:1008CD0012758A7B758C7BD28C308DFDC28DC28C5E
:0308DD000E80E6A4
:0108E00022F5
:10080000BB010689828A83E0225002E722BBFE02F6
:09081000E32289828A83E4932229
:10081900BC000BBE0029EF8DF084FFADF022E4CCC3
:10082900F875F008EF2FFFEE33FEEC33FCEE9DEC8C
:10083900984005FCEE9DFE0FD5F0E9E4CEFD22EDD2
:10084900F8F5F0EE8420D21CFEADF075F008EF2F1C
:10085900FFED33FD4007985006D5F0F222C398FD0D
:050869000FD5F0EA22AA
:00000001FF
